{
  "contractName": "BEP20Token",
  "abi": [
    {
      "inputs": [
        {
          "internalType": "string",
          "name": "token_name",
          "type": "string"
        },
        {
          "internalType": "string",
          "name": "token_symbol",
          "type": "string"
        },
        {
          "internalType": "uint8",
          "name": "token_decimals",
          "type": "uint8"
        },
        {
          "internalType": "uint256",
          "name": "token_per_eth",
          "type": "uint256"
        }
      ],
      "payable": false,
      "stateMutability": "nonpayable",
      "type": "constructor"
    },
    {
      "anonymous": false,
      "inputs": [
        {
          "indexed": true,
          "internalType": "address",
          "name": "owner",
          "type": "address"
        },
        {
          "indexed": true,
          "internalType": "address",
          "name": "spender",
          "type": "address"
        },
        {
          "indexed": false,
          "internalType": "uint256",
          "name": "value",
          "type": "uint256"
        }
      ],
      "name": "Approval",
      "type": "event"
    },
    {
      "anonymous": false,
      "inputs": [
        {
          "indexed": false,
          "internalType": "uint256",
          "name": "amount",
          "type": "uint256"
        }
      ],
      "name": "Bought",
      "type": "event"
    },
    {
      "anonymous": false,
      "inputs": [
        {
          "indexed": true,
          "internalType": "address",
          "name": "previousOwner",
          "type": "address"
        },
        {
          "indexed": true,
          "internalType": "address",
          "name": "newOwner",
          "type": "address"
        }
      ],
      "name": "OwnershipTransferred",
      "type": "event"
    },
    {
      "anonymous": false,
      "inputs": [
        {
          "indexed": false,
          "internalType": "uint256",
          "name": "amount",
          "type": "uint256"
        }
      ],
      "name": "Sold",
      "type": "event"
    },
    {
      "anonymous": false,
      "inputs": [
        {
          "indexed": true,
          "internalType": "address",
          "name": "from",
          "type": "address"
        },
        {
          "indexed": true,
          "internalType": "address",
          "name": "to",
          "type": "address"
        },
        {
          "indexed": false,
          "internalType": "uint256",
          "name": "value",
          "type": "uint256"
        }
      ],
      "name": "Transfer",
      "type": "event"
    },
    {
      "constant": true,
      "inputs": [],
      "name": "owner",
      "outputs": [
        {
          "internalType": "address",
          "name": "",
          "type": "address"
        }
      ],
      "payable": false,
      "stateMutability": "view",
      "type": "function"
    },
    {
      "constant": false,
      "inputs": [],
      "name": "renounceOwnership",
      "outputs": [],
      "payable": false,
      "stateMutability": "nonpayable",
      "type": "function"
    },
    {
      "constant": false,
      "inputs": [
        {
          "internalType": "address",
          "name": "newOwner",
          "type": "address"
        }
      ],
      "name": "transferOwnership",
      "outputs": [],
      "payable": false,
      "stateMutability": "nonpayable",
      "type": "function"
    },
    {
      "constant": true,
      "inputs": [],
      "name": "getOwner",
      "outputs": [
        {
          "internalType": "address",
          "name": "",
          "type": "address"
        }
      ],
      "payable": false,
      "stateMutability": "view",
      "type": "function"
    },
    {
      "constant": true,
      "inputs": [],
      "name": "decimals",
      "outputs": [
        {
          "internalType": "uint8",
          "name": "",
          "type": "uint8"
        }
      ],
      "payable": false,
      "stateMutability": "view",
      "type": "function"
    },
    {
      "constant": true,
      "inputs": [],
      "name": "symbol",
      "outputs": [
        {
          "internalType": "string",
          "name": "",
          "type": "string"
        }
      ],
      "payable": false,
      "stateMutability": "view",
      "type": "function"
    },
    {
      "constant": true,
      "inputs": [],
      "name": "name",
      "outputs": [
        {
          "internalType": "string",
          "name": "",
          "type": "string"
        }
      ],
      "payable": false,
      "stateMutability": "view",
      "type": "function"
    },
    {
      "constant": true,
      "inputs": [],
      "name": "totalSupply",
      "outputs": [
        {
          "internalType": "uint256",
          "name": "",
          "type": "uint256"
        }
      ],
      "payable": false,
      "stateMutability": "view",
      "type": "function"
    },
    {
      "constant": true,
      "inputs": [
        {
          "internalType": "address",
          "name": "account",
          "type": "address"
        }
      ],
      "name": "balanceOf",
      "outputs": [
        {
          "internalType": "uint256",
          "name": "",
          "type": "uint256"
        }
      ],
      "payable": false,
      "stateMutability": "view",
      "type": "function"
    },
    {
      "constant": false,
      "inputs": [
        {
          "internalType": "address",
          "name": "recipient",
          "type": "address"
        },
        {
          "internalType": "uint256",
          "name": "amount",
          "type": "uint256"
        }
      ],
      "name": "transfer",
      "outputs": [
        {
          "internalType": "bool",
          "name": "",
          "type": "bool"
        }
      ],
      "payable": false,
      "stateMutability": "nonpayable",
      "type": "function"
    },
    {
      "constant": true,
      "inputs": [
        {
          "internalType": "address",
          "name": "owner",
          "type": "address"
        },
        {
          "internalType": "address",
          "name": "spender",
          "type": "address"
        }
      ],
      "name": "allowance",
      "outputs": [
        {
          "internalType": "uint256",
          "name": "",
          "type": "uint256"
        }
      ],
      "payable": false,
      "stateMutability": "view",
      "type": "function"
    },
    {
      "constant": false,
      "inputs": [
        {
          "internalType": "address",
          "name": "spender",
          "type": "address"
        },
        {
          "internalType": "uint256",
          "name": "amount",
          "type": "uint256"
        }
      ],
      "name": "approve",
      "outputs": [
        {
          "internalType": "bool",
          "name": "",
          "type": "bool"
        }
      ],
      "payable": false,
      "stateMutability": "nonpayable",
      "type": "function"
    },
    {
      "constant": false,
      "inputs": [
        {
          "internalType": "address",
          "name": "sender",
          "type": "address"
        },
        {
          "internalType": "address",
          "name": "recipient",
          "type": "address"
        },
        {
          "internalType": "uint256",
          "name": "amount",
          "type": "uint256"
        }
      ],
      "name": "transferFrom",
      "outputs": [
        {
          "internalType": "bool",
          "name": "",
          "type": "bool"
        }
      ],
      "payable": false,
      "stateMutability": "nonpayable",
      "type": "function"
    },
    {
      "constant": false,
      "inputs": [
        {
          "internalType": "address",
          "name": "spender",
          "type": "address"
        },
        {
          "internalType": "uint256",
          "name": "addedValue",
          "type": "uint256"
        }
      ],
      "name": "increaseAllowance",
      "outputs": [
        {
          "internalType": "bool",
          "name": "",
          "type": "bool"
        }
      ],
      "payable": false,
      "stateMutability": "nonpayable",
      "type": "function"
    },
    {
      "constant": false,
      "inputs": [
        {
          "internalType": "address",
          "name": "spender",
          "type": "address"
        },
        {
          "internalType": "uint256",
          "name": "subtractedValue",
          "type": "uint256"
        }
      ],
      "name": "decreaseAllowance",
      "outputs": [
        {
          "internalType": "bool",
          "name": "",
          "type": "bool"
        }
      ],
      "payable": false,
      "stateMutability": "nonpayable",
      "type": "function"
    },
    {
      "constant": false,
      "inputs": [
        {
          "internalType": "uint256",
          "name": "amount",
          "type": "uint256"
        }
      ],
      "name": "mint",
      "outputs": [
        {
          "internalType": "bool",
          "name": "",
          "type": "bool"
        }
      ],
      "payable": false,
      "stateMutability": "nonpayable",
      "type": "function"
    },
    {
      "constant": true,
      "inputs": [],
      "name": "tokens_per_eth",
      "outputs": [
        {
          "internalType": "uint256",
          "name": "",
          "type": "uint256"
        }
      ],
      "payable": false,
      "stateMutability": "view",
      "type": "function"
    },
    {
      "constant": false,
      "inputs": [],
      "name": "buy",
      "outputs": [],
      "payable": true,
      "stateMutability": "payable",
      "type": "function"
    },
    {
      "constant": false,
      "inputs": [
        {
          "internalType": "uint256",
          "name": "amount",
          "type": "uint256"
        }
      ],
      "name": "sell",
      "outputs": [],
      "payable": false,
      "stateMutability": "nonpayable",
      "type": "function"
    }
  ],
  "bytecode": "0x60806040523480156200001157600080fd5b50604051620016bd380380620016bd833981810160405260808110156200003757600080fd5b81019080805160405193929190846401000000008211156200005857600080fd5b9083019060208201858111156200006e57600080fd5b82516401000000008111828201881017156200008957600080fd5b82525081516020918201929091019080838360005b83811015620000b85781810151838201526020016200009e565b50505050905090810190601f168015620000e65780820380516001836020036101000a031916815260200191505b50604052602001805160405193929190846401000000008211156200010a57600080fd5b9083019060208201858111156200012057600080fd5b82516401000000008111828201881017156200013b57600080fd5b82525081516020918201929091019080838360005b838110156200016a57818101518382015260200162000150565b50505050905090810190601f168015620001985780820380516001836020036101000a031916815260200191505b506040908152602082015191015190925090506000620001c06001600160e01b03620002a316565b600080546001600160a01b0319166001600160a01b0383169081178255604051929350917f8be0079c531659141344cd1fd0a4f28419497f9722a3daafe3b4186f6b6457e0908290a35083516200021f906006906020870190620002a8565b50825162000235906005906020860190620002a8565b506004805460ff191660ff841617905560078190556000600381905533808252600160209081526040808420849055805184815290519293927fddf252ad1be2c89b69c2b068fc378daa952ba7f163c4a11628f55a4df523b3ef929181900390910190a3505050506200034a565b335b90565b828054600181600116156101000203166002900490600052602060002090601f016020900481019282601f10620002eb57805160ff19168380011785556200031b565b828001600101855582156200031b579182015b828111156200031b578251825591602001919060010190620002fe565b50620003299291506200032d565b5090565b620002a591905b8082111562000329576000815560010162000334565b611363806200035a6000396000f3fe6080604052600436106101445760003560e01c8063893d20e8116100c0578063a6f2ae3a11610074578063dd62ed3e11610059578063dd62ed3e1461044c578063e4849b3214610487578063f2fde38b146104b157610144565b8063a6f2ae3a1461040b578063a9059cbb1461041357610144565b806395d89b41116100a557806395d89b4114610393578063a0712d68146103a8578063a457c2d7146103d257610144565b8063893d20e81461034d5780638da5cb5b1461037e57610144565b806323b872dd1161011757806339509351116100fc57806339509351146102ca57806370a0823114610303578063715018a61461033657610144565b806323b872dd1461025c578063313ce5671461029f57610144565b80630486c6241461014957806306fdde0314610170578063095ea7b3146101fa57806318160ddd14610247575b600080fd5b34801561015557600080fd5b5061015e6104e4565b60408051918252519081900360200190f35b34801561017c57600080fd5b506101856104ea565b6040805160208082528351818301528351919283929083019185019080838360005b838110156101bf5781810151838201526020016101a7565b50505050905090810190601f1680156101ec5780820380516001836020036101000a031916815260200191505b509250505060405180910390f35b34801561020657600080fd5b506102336004803603604081101561021d57600080fd5b506001600160a01b038135169060200135610580565b604080519115158252519081900360200190f35b34801561025357600080fd5b5061015e61059e565b34801561026857600080fd5b506102336004803603606081101561027f57600080fd5b506001600160a01b038135811691602081013590911690604001356105a4565b3480156102ab57600080fd5b506102b4610631565b6040805160ff9092168252519081900360200190f35b3480156102d657600080fd5b50610233600480360360408110156102ed57600080fd5b506001600160a01b03813516906020013561063a565b34801561030f57600080fd5b5061015e6004803603602081101561032657600080fd5b50356001600160a01b031661068e565b34801561034257600080fd5b5061034b6106a9565b005b34801561035957600080fd5b5061036261076a565b604080516001600160a01b039092168252519081900360200190f35b34801561038a57600080fd5b50610362610779565b34801561039f57600080fd5b50610185610788565b3480156103b457600080fd5b50610233600480360360208110156103cb57600080fd5b50356107e9565b3480156103de57600080fd5b50610233600480360360408110156103f557600080fd5b506001600160a01b038135169060200135610804565b61034b610872565b34801561041f57600080fd5b506102336004803603604081101561043657600080fd5b506001600160a01b0381351690602001356108c8565b34801561045857600080fd5b5061015e6004803603604081101561046f57600080fd5b506001600160a01b03813581169160200135166108dc565b34801561049357600080fd5b5061034b600480360360208110156104aa57600080fd5b5035610907565b3480156104bd57600080fd5b5061034b600480360360208110156104d457600080fd5b50356001600160a01b0316610a0a565b60075490565b60068054604080516020601f60026000196101006001881615020190951694909404938401819004810282018101909252828152606093909290918301828280156105765780601f1061054b57610100808354040283529160200191610576565b820191906000526020600020905b81548152906001019060200180831161055957829003601f168201915b5050505050905090565b600061059461058d610a80565b8484610a84565b5060015b92915050565b60035490565b60006105b1848484610b70565b610627846105bd610a80565b61062285604051806060016040528060288152602001611213602891396001600160a01b038a166000908152600260205260408120906105fb610a80565b6001600160a01b03168152602081019190915260400160002054919063ffffffff610cce16565b610a84565b5060019392505050565b60045460ff1690565b6000610594610647610a80565b846106228560026000610658610a80565b6001600160a01b03908116825260208083019390935260409182016000908120918c16815292529020549063ffffffff610d6516565b6001600160a01b031660009081526001602052604090205490565b6106b1610a80565b6000546001600160a01b03908116911614610713576040805162461bcd60e51b815260206004820181905260248201527f4f776e61626c653a2063616c6c6572206973206e6f7420746865206f776e6572604482015290519081900360640190fd5b600080546040516001600160a01b03909116907f8be0079c531659141344cd1fd0a4f28419497f9722a3daafe3b4186f6b6457e0908390a36000805473ffffffffffffffffffffffffffffffffffffffff19169055565b6000610774610779565b905090565b6000546001600160a01b031690565b60058054604080516020601f60026000196101006001881615020190951694909404938401819004810282018101909252828152606093909290918301828280156105765780601f1061054b57610100808354040283529160200191610576565b60006107fc6107f6610a80565b83610dc6565b506001919050565b6000610594610811610a80565b84610622856040518060600160405280602581526020016112a5602591396002600061083b610a80565b6001600160a01b03908116825260208083019390935260409182016000908120918d1681529252902054919063ffffffff610cce16565b6000349050600061088582600754610eb8565b90506108913382610dc6565b6040805182815290517f4e08ba899977cf7d4c2964bce71c6b9a7ef76ee5166a4c1249a1e08016e33ef19181900360200190a15050565b60006105946108d5610a80565b8484610b70565b6001600160a01b03918216600090815260026020908152604080832093909416825291909152205490565b6000479050600061092b61091d84600754610f11565b670de0b6b3a7640000610eb8565b905080821015610982576040805162461bcd60e51b815260206004820152601a60248201527f4e6f7420656e6f7567682045544820696e20636f6e7472616374000000000000604482015290519081900360640190fd5b6004546109a490339061099f908690600a60ff9182161816610eb8565b610f53565b604051339082156108fc029083906000818181858888f193505050501580156109d1573d6000803e3d6000fd5b506040805184815290517f92f64ca637d023f354075a4be751b169c1a8a9ccb6d33cdd0cb35205439957279181900360200190a1505050565b610a12610a80565b6000546001600160a01b03908116911614610a74576040805162461bcd60e51b815260206004820181905260248201527f4f776e61626c653a2063616c6c6572206973206e6f7420746865206f776e6572604482015290519081900360640190fd5b610a7d8161104f565b50565b3390565b6001600160a01b038316610ac95760405162461bcd60e51b81526004018080602001828103825260248152602001806111c96024913960400191505060405180910390fd5b6001600160a01b038216610b0e5760405162461bcd60e51b815260040180806020018281038252602281526020018061130d6022913960400191505060405180910390fd5b6001600160a01b03808416600081815260026020908152604080832094871680845294825291829020859055815185815291517f8c5be1e5ebec7d5bd14f71427d1e84f3dd0314c0f7b2291e5b200ac8c7c3b9259281900390910190a3505050565b6001600160a01b038316610bb55760405162461bcd60e51b81526004018080602001828103825260258152602001806111a46025913960400191505060405180910390fd5b6001600160a01b038216610bfa5760405162461bcd60e51b81526004018080602001828103825260238152602001806112826023913960400191505060405180910390fd5b610c3d8160405180606001604052806026815260200161125c602691396001600160a01b038616600090815260016020526040902054919063ffffffff610cce16565b6001600160a01b038085166000908152600160205260408082209390935590841681522054610c72908263ffffffff610d6516565b6001600160a01b0380841660008181526001602090815260409182902094909455805185815290519193928716927fddf252ad1be2c89b69c2b068fc378daa952ba7f163c4a11628f55a4df523b3ef92918290030190a3505050565b60008184841115610d5d5760405162461bcd60e51b81526004018080602001828103825283818151815260200191508051906020019080838360005b83811015610d22578181015183820152602001610d0a565b50505050905090810190601f168015610d4f5780820380516001836020036101000a031916815260200191505b509250505060405180910390fd5b505050900390565b600082820183811015610dbf576040805162461bcd60e51b815260206004820152601b60248201527f536166654d6174683a206164646974696f6e206f766572666c6f770000000000604482015290519081900360640190fd5b9392505050565b6001600160a01b038216610e21576040805162461bcd60e51b815260206004820152601f60248201527f42455032303a206d696e7420746f20746865207a65726f206164647265737300604482015290519081900360640190fd5b600354610e34908263ffffffff610d6516565b6003556001600160a01b038216600090815260016020526040902054610e60908263ffffffff610d6516565b6001600160a01b03831660008181526001602090815260408083209490945583518581529351929391927fddf252ad1be2c89b69c2b068fc378daa952ba7f163c4a11628f55a4df523b3ef9281900390910190a35050565b600082610ec757506000610598565b82820282848281610ed457fe5b0414610dbf5760405162461bcd60e51b815260040180806020018281038252602181526020018061123b6021913960400191505060405180910390fd5b6000610dbf83836040518060400160405280601a81526020017f536166654d6174683a206469766973696f6e206279207a65726f0000000000008152506110fc565b6001600160a01b038216610f985760405162461bcd60e51b81526004018080602001828103825260218152602001806112ca6021913960400191505060405180910390fd5b610fdb816040518060600160405280602281526020016112eb602291396001600160a01b038516600090815260016020526040902054919063ffffffff610cce16565b6001600160a01b038316600090815260016020526040902055600354611007908263ffffffff61116116565b6003556040805182815290516000916001600160a01b038516917fddf252ad1be2c89b69c2b068fc378daa952ba7f163c4a11628f55a4df523b3ef9181900360200190a35050565b6001600160a01b0381166110945760405162461bcd60e51b81526004018080602001828103825260268152602001806111ed6026913960400191505060405180910390fd5b600080546040516001600160a01b03808516939216917f8be0079c531659141344cd1fd0a4f28419497f9722a3daafe3b4186f6b6457e091a36000805473ffffffffffffffffffffffffffffffffffffffff19166001600160a01b0392909216919091179055565b6000818361114b5760405162461bcd60e51b8152602060048201818152835160248401528351909283926044909101919085019080838360008315610d22578181015183820152602001610d0a565b50600083858161115757fe5b0495945050505050565b6000610dbf83836040518060400160405280601e81526020017f536166654d6174683a207375627472616374696f6e206f766572666c6f770000815250610cce56fe42455032303a207472616e736665722066726f6d20746865207a65726f206164647265737342455032303a20617070726f76652066726f6d20746865207a65726f20616464726573734f776e61626c653a206e6577206f776e657220697320746865207a65726f206164647265737342455032303a207472616e7366657220616d6f756e74206578636565647320616c6c6f77616e6365536166654d6174683a206d756c7469706c69636174696f6e206f766572666c6f7742455032303a207472616e7366657220616d6f756e7420657863656564732062616c616e636542455032303a207472616e7366657220746f20746865207a65726f206164647265737342455032303a2064656372656173656420616c6c6f77616e63652062656c6f77207a65726f42455032303a206275726e2066726f6d20746865207a65726f206164647265737342455032303a206275726e20616d6f756e7420657863656564732062616c616e636542455032303a20617070726f766520746f20746865207a65726f2061646472657373a265627a7a723158205271651f7884885b372a900da14253b39630890f067de6d45cb6d1bcdea7c4b764736f6c63430005100032",
  "source": "pragma solidity 0.5.16;\r\n\r\nimport \"./Context.sol\";\r\nimport \"./IBEP20.sol\";\r\nimport \"./Ownable.sol\";\r\nimport \"./SafeMath.sol\";\r\n\r\ncontract BEP20Token is Context, IBEP20, Ownable {\r\n  using SafeMath for uint256;\r\n\r\n  mapping (address => uint256) private _balances;\r\n\r\n  mapping (address => mapping (address => uint256)) private _allowances;\r\n\r\n  uint256 private _totalSupply;\r\n  uint8 private _decimals;\r\n  string private _symbol;\r\n  string private _name;\r\n  \r\n  /* Custom field */ \r\n  uint256 private _token_per_eth;\r\n\r\n  constructor(string memory token_name, string memory token_symbol, uint8 token_decimals, uint256 token_per_eth) public {\r\n    _name = token_name;\r\n    _symbol = token_symbol;\r\n    _decimals = token_decimals;\r\n    _token_per_eth = token_per_eth;\r\n    _totalSupply = 0;\r\n    _balances[msg.sender] = _totalSupply;\r\n\r\n    emit Transfer(address(0), msg.sender, _totalSupply);\r\n  }\r\n\r\n  /**\r\n   * @dev Returns the bep token owner.\r\n   */\r\n  function getOwner() external view returns (address) {\r\n    return owner();\r\n  }\r\n\r\n  /**\r\n   * @dev Returns the token decimals.\r\n   */\r\n  function decimals() external view returns (uint8) {\r\n    return _decimals;\r\n  }\r\n\r\n  /**\r\n   * @dev Returns the token symbol.\r\n   */\r\n  function symbol() external view returns (string memory) {\r\n    return _symbol;\r\n  }\r\n\r\n  /**\r\n  * @dev Returns the token name.\r\n  */\r\n  function name() external view returns (string memory) {\r\n    return _name;\r\n  }\r\n\r\n  /**\r\n   * @dev See {BEP20-totalSupply}.\r\n   */\r\n  function totalSupply() external view returns (uint256) {\r\n    return _totalSupply;\r\n  }\r\n\r\n  /**\r\n   * @dev See {BEP20-balanceOf}.\r\n   */\r\n  function balanceOf(address account) external view returns (uint256) {\r\n    return _balances[account];\r\n  }\r\n\r\n  /**\r\n   * @dev See {BEP20-transfer}.\r\n   *\r\n   * Requirements:\r\n   *\r\n   * - `recipient` cannot be the zero address.\r\n   * - the caller must have a balance of at least `amount`.\r\n   */\r\n  function transfer(address recipient, uint256 amount) external returns (bool) {\r\n    _transfer(_msgSender(), recipient, amount);\r\n    return true;\r\n  }\r\n\r\n  /**\r\n   * @dev See {BEP20-allowance}.\r\n   */\r\n  function allowance(address owner, address spender) external view returns (uint256) {\r\n    return _allowances[owner][spender];\r\n  }\r\n\r\n  /**\r\n   * @dev See {BEP20-approve}.\r\n   *\r\n   * Requirements:\r\n   *\r\n   * - `spender` cannot be the zero address.\r\n   */\r\n  function approve(address spender, uint256 amount) external returns (bool) {\r\n    _approve(_msgSender(), spender, amount);\r\n    return true;\r\n  }\r\n\r\n  /**\r\n   * @dev See {BEP20-transferFrom}.\r\n   *\r\n   * Emits an {Approval} event indicating the updated allowance. This is not\r\n   * required by the EIP. See the note at the beginning of {BEP20};\r\n   *\r\n   * Requirements:\r\n   * - `sender` and `recipient` cannot be the zero address.\r\n   * - `sender` must have a balance of at least `amount`.\r\n   * - the caller must have allowance for `sender`'s tokens of at least\r\n   * `amount`.\r\n   */\r\n  function transferFrom(address sender, address recipient, uint256 amount) external returns (bool) {\r\n    _transfer(sender, recipient, amount);\r\n    _approve(sender, _msgSender(), _allowances[sender][_msgSender()].sub(amount, \"BEP20: transfer amount exceeds allowance\"));\r\n    return true;\r\n  }\r\n\r\n  /**\r\n   * @dev Atomically increases the allowance granted to `spender` by the caller.\r\n   *\r\n   * This is an alternative to {approve} that can be used as a mitigation for\r\n   * problems described in {BEP20-approve}.\r\n   *\r\n   * Emits an {Approval} event indicating the updated allowance.\r\n   *\r\n   * Requirements:\r\n   *\r\n   * - `spender` cannot be the zero address.\r\n   */\r\n  function increaseAllowance(address spender, uint256 addedValue) public returns (bool) {\r\n    _approve(_msgSender(), spender, _allowances[_msgSender()][spender].add(addedValue));\r\n    return true;\r\n  }\r\n\r\n  /**\r\n   * @dev Atomically decreases the allowance granted to `spender` by the caller.\r\n   *\r\n   * This is an alternative to {approve} that can be used as a mitigation for\r\n   * problems described in {BEP20-approve}.\r\n   *\r\n   * Emits an {Approval} event indicating the updated allowance.\r\n   *\r\n   * Requirements:\r\n   *\r\n   * - `spender` cannot be the zero address.\r\n   * - `spender` must have allowance for the caller of at least\r\n   * `subtractedValue`.\r\n   */\r\n  function decreaseAllowance(address spender, uint256 subtractedValue) public returns (bool) {\r\n    _approve(_msgSender(), spender, _allowances[_msgSender()][spender].sub(subtractedValue, \"BEP20: decreased allowance below zero\"));\r\n    return true;\r\n  }\r\n\r\n  /**\r\n   * @dev Creates `amount` tokens and assigns them to `msg.sender`, increasing\r\n   * the total supply.\r\n   *\r\n   * Requirements\r\n   *\r\n   * - `msg.sender` must be the token owner\r\n   */\r\n  function mint(uint256 amount) public returns (bool) {\r\n    _mint(_msgSender(), amount);\r\n    return true;\r\n  }\r\n\r\n  /**\r\n   * @dev Moves tokens `amount` from `sender` to `recipient`.\r\n   *\r\n   * This is internal function is equivalent to {transfer}, and can be used to\r\n   * e.g. implement automatic token fees, slashing mechanisms, etc.\r\n   *\r\n   * Emits a {Transfer} event.\r\n   *\r\n   * Requirements:\r\n   *\r\n   * - `sender` cannot be the zero address.\r\n   * - `recipient` cannot be the zero address.\r\n   * - `sender` must have a balance of at least `amount`.\r\n   */\r\n  function _transfer(address sender, address recipient, uint256 amount) internal {\r\n    require(sender != address(0), \"BEP20: transfer from the zero address\");\r\n    require(recipient != address(0), \"BEP20: transfer to the zero address\");\r\n\r\n    _balances[sender] = _balances[sender].sub(amount, \"BEP20: transfer amount exceeds balance\");\r\n    _balances[recipient] = _balances[recipient].add(amount);\r\n    emit Transfer(sender, recipient, amount);\r\n  }\r\n\r\n  /** @dev Creates `amount` tokens and assigns them to `account`, increasing\r\n   * the total supply.\r\n   *\r\n   * Emits a {Transfer} event with `from` set to the zero address.\r\n   *\r\n   * Requirements\r\n   *\r\n   * - `to` cannot be the zero address.\r\n   */\r\n  function _mint(address account, uint256 amount) internal {\r\n    require(account != address(0), \"BEP20: mint to the zero address\");\r\n\r\n    _totalSupply = _totalSupply.add(amount);\r\n    _balances[account] = _balances[account].add(amount);\r\n    emit Transfer(address(0), account, amount);\r\n  }\r\n\r\n  /**\r\n   * @dev Destroys `amount` tokens from `account`, reducing the\r\n   * total supply.\r\n   *\r\n   * Emits a {Transfer} event with `to` set to the zero address.\r\n   *\r\n   * Requirements\r\n   *\r\n   * - `account` cannot be the zero address.\r\n   * - `account` must have at least `amount` tokens.\r\n   */\r\n  function _burn(address account, uint256 amount) internal {\r\n    require(account != address(0), \"BEP20: burn from the zero address\");\r\n\r\n    _balances[account] = _balances[account].sub(amount, \"BEP20: burn amount exceeds balance\");\r\n    _totalSupply = _totalSupply.sub(amount);\r\n    emit Transfer(account, address(0), amount);\r\n  }\r\n\r\n  /**\r\n   * @dev Sets `amount` as the allowance of `spender` over the `owner`s tokens.\r\n   *\r\n   * This is internal function is equivalent to `approve`, and can be used to\r\n   * e.g. set automatic allowances for certain subsystems, etc.\r\n   *\r\n   * Emits an {Approval} event.\r\n   *\r\n   * Requirements:\r\n   *\r\n   * - `owner` cannot be the zero address.\r\n   * - `spender` cannot be the zero address.\r\n   */\r\n  function _approve(address owner, address spender, uint256 amount) internal {\r\n    require(owner != address(0), \"BEP20: approve from the zero address\");\r\n    require(spender != address(0), \"BEP20: approve to the zero address\");\r\n\r\n    _allowances[owner][spender] = amount;\r\n    emit Approval(owner, spender, amount);\r\n  }\r\n\r\n  /**\r\n   * @dev Destroys `amount` tokens from `account`.`amount` is then deducted\r\n   * from the caller's allowance.\r\n   *\r\n   * See {_burn} and {_approve}.\r\n   */\r\n  function _burnFrom(address account, uint256 amount) internal {\r\n    _burn(account, amount);\r\n    _approve(account, _msgSender(), _allowances[account][_msgSender()].sub(amount, \"BEP20: burn amount exceeds allowance\"));\r\n  }\r\n\r\n  /* Custom Funtions */\r\n  // Buy and sell function with fixed ether value\r\n  event Bought(uint256 amount);\r\n  event Sold(uint256 amount);\r\n  \r\n  function tokens_per_eth() public view returns (uint256){\r\n      return _token_per_eth;\r\n  }\r\n    \r\n  function buy() payable public {\r\n    uint256 eth_in = msg.value;\r\n    uint256 amount_to_buy = SafeMath.mul(eth_in, _token_per_eth);\r\n        \r\n    _mint(msg.sender, amount_to_buy);\r\n    emit Bought(amount_to_buy);\r\n  }\r\n    \r\n  function sell(uint256 amount) public {\r\n    uint256 eth_balance = address(this).balance;\r\n    uint256 eth_to_sell = SafeMath.mul(SafeMath.div(amount, _token_per_eth), 1 ether);\r\n        \r\n    require(eth_balance >= eth_to_sell, \"Not enough ETH in contract\");\r\n\r\n    _burn(msg.sender, SafeMath.mul(amount, 10^_decimals));\r\n    msg.sender.transfer(eth_to_sell);\r\n    emit Sold(amount);\r\n  }\r\n}",
  "sourcePath": "C:/Users/bromo/Documents/ethereum/beuro/contracts/BEP20Token.sol",
  "compiler": {
    "name": "solc",
    "version": "0.5.16+commit.9c3226ce.Emscripten.clang"
  },
  "schemaVersion": "3.4.1",
  "updatedAt": "2021-05-26T10:47:10.222Z",
  "networkType": "ethereum",
  "devdoc": {
    "methods": {
      "allowance(address,address)": {
        "details": "See {BEP20-allowance}."
      },
      "approve(address,uint256)": {
        "details": "See {BEP20-approve}.    * Requirements:    * - `spender` cannot be the zero address."
      },
      "balanceOf(address)": {
        "details": "See {BEP20-balanceOf}."
      },
      "decimals()": {
        "details": "Returns the token decimals."
      },
      "decreaseAllowance(address,uint256)": {
        "details": "Atomically decreases the allowance granted to `spender` by the caller.    * This is an alternative to {approve} that can be used as a mitigation for problems described in {BEP20-approve}.    * Emits an {Approval} event indicating the updated allowance.    * Requirements:    * - `spender` cannot be the zero address. - `spender` must have allowance for the caller of at least `subtractedValue`."
      },
      "getOwner()": {
        "details": "Returns the bep token owner."
      },
      "increaseAllowance(address,uint256)": {
        "details": "Atomically increases the allowance granted to `spender` by the caller.    * This is an alternative to {approve} that can be used as a mitigation for problems described in {BEP20-approve}.    * Emits an {Approval} event indicating the updated allowance.    * Requirements:    * - `spender` cannot be the zero address."
      },
      "mint(uint256)": {
        "details": "Creates `amount` tokens and assigns them to `msg.sender`, increasing the total supply.    * Requirements    * - `msg.sender` must be the token owner"
      },
      "name()": {
        "details": "Returns the token name."
      },
      "owner()": {
        "details": "Returns the address of the current owner."
      },
      "renounceOwnership()": {
        "details": "Leaves the contract without owner. It will not be possible to call `onlyOwner` functions anymore. Can only be called by the current owner.    * NOTE: Renouncing ownership will leave the contract without an owner, thereby removing any functionality that is only available to the owner."
      },
      "symbol()": {
        "details": "Returns the token symbol."
      },
      "totalSupply()": {
        "details": "See {BEP20-totalSupply}."
      },
      "transfer(address,uint256)": {
        "details": "See {BEP20-transfer}.    * Requirements:    * - `recipient` cannot be the zero address. - the caller must have a balance of at least `amount`."
      },
      "transferFrom(address,address,uint256)": {
        "details": "See {BEP20-transferFrom}.    * Emits an {Approval} event indicating the updated allowance. This is not required by the EIP. See the note at the beginning of {BEP20};    * Requirements: - `sender` and `recipient` cannot be the zero address. - `sender` must have a balance of at least `amount`. - the caller must have allowance for `sender`'s tokens of at least `amount`."
      },
      "transferOwnership(address)": {
        "details": "Transfers ownership of the contract to a new account (`newOwner`). Can only be called by the current owner."
      }
    }
  },
  "userdoc": {
    "methods": {}
  }
}