{
  "contractName": "FixedToken",
  "abi": [
    {
      "inputs": [
        {
          "internalType": "string",
          "name": "name",
          "type": "string"
        },
        {
          "internalType": "string",
          "name": "symbol",
          "type": "string"
        },
        {
          "internalType": "uint256",
          "name": "token_per_eth",
          "type": "uint256"
        }
      ],
      "stateMutability": "nonpayable",
      "type": "constructor"
    },
    {
      "anonymous": false,
      "inputs": [
        {
          "indexed": true,
          "internalType": "address",
          "name": "owner",
          "type": "address"
        },
        {
          "indexed": true,
          "internalType": "address",
          "name": "spender",
          "type": "address"
        },
        {
          "indexed": false,
          "internalType": "uint256",
          "name": "value",
          "type": "uint256"
        }
      ],
      "name": "Approval",
      "type": "event"
    },
    {
      "anonymous": false,
      "inputs": [
        {
          "indexed": false,
          "internalType": "uint256",
          "name": "amount",
          "type": "uint256"
        }
      ],
      "name": "Bought",
      "type": "event"
    },
    {
      "anonymous": false,
      "inputs": [
        {
          "indexed": false,
          "internalType": "uint256",
          "name": "amount",
          "type": "uint256"
        }
      ],
      "name": "Sold",
      "type": "event"
    },
    {
      "anonymous": false,
      "inputs": [
        {
          "indexed": true,
          "internalType": "address",
          "name": "from",
          "type": "address"
        },
        {
          "indexed": true,
          "internalType": "address",
          "name": "to",
          "type": "address"
        },
        {
          "indexed": false,
          "internalType": "uint256",
          "name": "value",
          "type": "uint256"
        }
      ],
      "name": "Transfer",
      "type": "event"
    },
    {
      "inputs": [],
      "name": "_token_per_eth",
      "outputs": [
        {
          "internalType": "uint256",
          "name": "",
          "type": "uint256"
        }
      ],
      "stateMutability": "view",
      "type": "function",
      "constant": true
    },
    {
      "inputs": [
        {
          "internalType": "address",
          "name": "owner",
          "type": "address"
        },
        {
          "internalType": "address",
          "name": "spender",
          "type": "address"
        }
      ],
      "name": "allowance",
      "outputs": [
        {
          "internalType": "uint256",
          "name": "",
          "type": "uint256"
        }
      ],
      "stateMutability": "view",
      "type": "function",
      "constant": true
    },
    {
      "inputs": [
        {
          "internalType": "address",
          "name": "spender",
          "type": "address"
        },
        {
          "internalType": "uint256",
          "name": "amount",
          "type": "uint256"
        }
      ],
      "name": "approve",
      "outputs": [
        {
          "internalType": "bool",
          "name": "",
          "type": "bool"
        }
      ],
      "stateMutability": "nonpayable",
      "type": "function"
    },
    {
      "inputs": [
        {
          "internalType": "address",
          "name": "account",
          "type": "address"
        }
      ],
      "name": "balanceOf",
      "outputs": [
        {
          "internalType": "uint256",
          "name": "",
          "type": "uint256"
        }
      ],
      "stateMutability": "view",
      "type": "function",
      "constant": true
    },
    {
      "inputs": [],
      "name": "decimals",
      "outputs": [
        {
          "internalType": "uint8",
          "name": "",
          "type": "uint8"
        }
      ],
      "stateMutability": "view",
      "type": "function",
      "constant": true
    },
    {
      "inputs": [
        {
          "internalType": "address",
          "name": "spender",
          "type": "address"
        },
        {
          "internalType": "uint256",
          "name": "subtractedValue",
          "type": "uint256"
        }
      ],
      "name": "decreaseAllowance",
      "outputs": [
        {
          "internalType": "bool",
          "name": "",
          "type": "bool"
        }
      ],
      "stateMutability": "nonpayable",
      "type": "function"
    },
    {
      "inputs": [
        {
          "internalType": "address",
          "name": "spender",
          "type": "address"
        },
        {
          "internalType": "uint256",
          "name": "addedValue",
          "type": "uint256"
        }
      ],
      "name": "increaseAllowance",
      "outputs": [
        {
          "internalType": "bool",
          "name": "",
          "type": "bool"
        }
      ],
      "stateMutability": "nonpayable",
      "type": "function"
    },
    {
      "inputs": [],
      "name": "name",
      "outputs": [
        {
          "internalType": "string",
          "name": "",
          "type": "string"
        }
      ],
      "stateMutability": "view",
      "type": "function",
      "constant": true
    },
    {
      "inputs": [],
      "name": "symbol",
      "outputs": [
        {
          "internalType": "string",
          "name": "",
          "type": "string"
        }
      ],
      "stateMutability": "view",
      "type": "function",
      "constant": true
    },
    {
      "inputs": [],
      "name": "totalSupply",
      "outputs": [
        {
          "internalType": "uint256",
          "name": "",
          "type": "uint256"
        }
      ],
      "stateMutability": "view",
      "type": "function",
      "constant": true
    },
    {
      "inputs": [
        {
          "internalType": "address",
          "name": "recipient",
          "type": "address"
        },
        {
          "internalType": "uint256",
          "name": "amount",
          "type": "uint256"
        }
      ],
      "name": "transfer",
      "outputs": [
        {
          "internalType": "bool",
          "name": "",
          "type": "bool"
        }
      ],
      "stateMutability": "nonpayable",
      "type": "function"
    },
    {
      "inputs": [
        {
          "internalType": "address",
          "name": "sender",
          "type": "address"
        },
        {
          "internalType": "address",
          "name": "recipient",
          "type": "address"
        },
        {
          "internalType": "uint256",
          "name": "amount",
          "type": "uint256"
        }
      ],
      "name": "transferFrom",
      "outputs": [
        {
          "internalType": "bool",
          "name": "",
          "type": "bool"
        }
      ],
      "stateMutability": "nonpayable",
      "type": "function"
    },
    {
      "inputs": [],
      "name": "tokens_per_eth",
      "outputs": [
        {
          "internalType": "uint256",
          "name": "",
          "type": "uint256"
        }
      ],
      "stateMutability": "view",
      "type": "function",
      "constant": true
    },
    {
      "inputs": [],
      "name": "buy",
      "outputs": [],
      "stateMutability": "payable",
      "type": "function",
      "payable": true
    },
    {
      "inputs": [
        {
          "internalType": "uint256",
          "name": "amount",
          "type": "uint256"
        }
      ],
      "name": "sell",
      "outputs": [],
      "stateMutability": "nonpayable",
      "type": "function"
    }
  ],
  "bytecode": "0x60806040523480156200001157600080fd5b506040516200223a3803806200223a8339818101604052810190620000379190620001b6565b82828160039080519060200190620000519291906200007d565b5080600490805190602001906200006a9291906200007d565b50505080600581905550505050620003d2565b8280546200008b90620002dd565b90600052602060002090601f016020900481019282620000af5760008555620000fb565b82601f10620000ca57805160ff1916838001178555620000fb565b82800160010185558215620000fb579182015b82811115620000fa578251825591602001919060010190620000dd565b5b5090506200010a91906200010e565b5090565b5b80821115620001295760008160009055506001016200010f565b5090565b6000620001446200013e8462000267565b6200023e565b9050828152602081018484840111156200015d57600080fd5b6200016a848285620002a7565b509392505050565b600082601f8301126200018457600080fd5b8151620001968482602086016200012d565b91505092915050565b600081519050620001b081620003b8565b92915050565b600080600060608486031215620001cc57600080fd5b600084015167ffffffffffffffff811115620001e757600080fd5b620001f58682870162000172565b935050602084015167ffffffffffffffff8111156200021357600080fd5b620002218682870162000172565b925050604062000234868287016200019f565b9150509250925092565b60006200024a6200025d565b905062000258828262000313565b919050565b6000604051905090565b600067ffffffffffffffff82111562000285576200028462000378565b5b6200029082620003a7565b9050602081019050919050565b6000819050919050565b60005b83811015620002c7578082015181840152602081019050620002aa565b83811115620002d7576000848401525b50505050565b60006002820490506001821680620002f657607f821691505b602082108114156200030d576200030c62000349565b5b50919050565b6200031e82620003a7565b810181811067ffffffffffffffff8211171562000340576200033f62000378565b5b80604052505050565b7f4e487b7100000000000000000000000000000000000000000000000000000000600052602260045260246000fd5b7f4e487b7100000000000000000000000000000000000000000000000000000000600052604160045260246000fd5b6000601f19601f8301169050919050565b620003c3816200029d565b8114620003cf57600080fd5b50565b611e5880620003e26000396000f3fe6080604052600436106100e85760003560e01c806370a082311161008a578063a6f2ae3a11610059578063a6f2ae3a14610320578063a9059cbb1461032a578063dd62ed3e14610367578063e4849b32146103a4576100e8565b806370a082311461025057806373c620251461028d57806395d89b41146102b8578063a457c2d7146102e3576100e8565b806318160ddd116100c657806318160ddd1461018057806323b872dd146101ab578063313ce567146101e85780633950935114610213576100e8565b80630486c624146100ed57806306fdde0314610118578063095ea7b314610143575b600080fd5b3480156100f957600080fd5b506101026103cd565b60405161010f919061169e565b60405180910390f35b34801561012457600080fd5b5061012d6103d7565b60405161013a919061151c565b60405180910390f35b34801561014f57600080fd5b5061016a600480360381019061016591906112b5565b610469565b6040516101779190611501565b60405180910390f35b34801561018c57600080fd5b50610195610487565b6040516101a2919061169e565b60405180910390f35b3480156101b757600080fd5b506101d260048036038101906101cd9190611266565b610491565b6040516101df9190611501565b60405180910390f35b3480156101f457600080fd5b506101fd610592565b60405161020a91906116b9565b60405180910390f35b34801561021f57600080fd5b5061023a600480360381019061023591906112b5565b61059b565b6040516102479190611501565b60405180910390f35b34801561025c57600080fd5b5061027760048036038101906102729190611201565b610647565b604051610284919061169e565b60405180910390f35b34801561029957600080fd5b506102a261068f565b6040516102af919061169e565b60405180910390f35b3480156102c457600080fd5b506102cd610695565b6040516102da919061151c565b60405180910390f35b3480156102ef57600080fd5b5061030a600480360381019061030591906112b5565b610727565b6040516103179190611501565b60405180910390f35b61032861081b565b005b34801561033657600080fd5b50610351600480360381019061034c91906112b5565b610875565b60405161035e9190611501565b60405180910390f35b34801561037357600080fd5b5061038e6004803603810190610389919061122a565b610893565b60405161039b919061169e565b60405180910390f35b3480156103b057600080fd5b506103cb60048036038101906103c691906112f1565b61091a565b005b6000600554905090565b6060600380546103e6906119fe565b80601f0160208091040260200160405190810160405280929190818152602001828054610412906119fe565b801561045f5780601f106104345761010080835404028352916020019161045f565b820191906000526020600020905b81548152906001019060200180831161044257829003601f168201915b5050505050905090565b600061047d610476610a2c565b8484610a34565b6001905092915050565b6000600254905090565b600061049e848484610bff565b6000600160008673ffffffffffffffffffffffffffffffffffffffff1673ffffffffffffffffffffffffffffffffffffffff16815260200190815260200160002060006104e9610a2c565b73ffffffffffffffffffffffffffffffffffffffff1673ffffffffffffffffffffffffffffffffffffffff16815260200190815260200160002054905082811015610569576040517f08c379a0000000000000000000000000000000000000000000000000000000008152600401610560906115be565b60405180910390fd5b61058685610575610a2c565b85846105819190611942565b610a34565b60019150509392505050565b60006012905090565b600061063d6105a8610a2c565b8484600160006105b6610a2c565b73ffffffffffffffffffffffffffffffffffffffff1673ffffffffffffffffffffffffffffffffffffffff16815260200190815260200160002060008873ffffffffffffffffffffffffffffffffffffffff1673ffffffffffffffffffffffffffffffffffffffff1681526020019081526020016000205461063891906116f0565b610a34565b6001905092915050565b60008060008373ffffffffffffffffffffffffffffffffffffffff1673ffffffffffffffffffffffffffffffffffffffff168152602001908152602001600020549050919050565b60055481565b6060600480546106a4906119fe565b80601f01602080910402602001604051908101604052809291908181526020018280546106d0906119fe565b801561071d5780601f106106f25761010080835404028352916020019161071d565b820191906000526020600020905b81548152906001019060200180831161070057829003601f168201915b5050505050905090565b60008060016000610736610a2c565b73ffffffffffffffffffffffffffffffffffffffff1673ffffffffffffffffffffffffffffffffffffffff16815260200190815260200160002060008573ffffffffffffffffffffffffffffffffffffffff1673ffffffffffffffffffffffffffffffffffffffff168152602001908152602001600020549050828110156107f3576040517f08c379a00000000000000000000000000000000000000000000000000000000081526004016107ea9061165e565b60405180910390fd5b6108106107fe610a2c565b85858461080b9190611942565b610a34565b600191505092915050565b6000349050600061082e82600554610e7e565b905061083a3382610e94565b7f4e08ba899977cf7d4c2964bce71c6b9a7ef76ee5166a4c1249a1e08016e33ef181604051610869919061169e565b60405180910390a15050565b6000610889610882610a2c565b8484610bff565b6001905092915050565b6000600160008473ffffffffffffffffffffffffffffffffffffffff1673ffffffffffffffffffffffffffffffffffffffff16815260200190815260200160002060008373ffffffffffffffffffffffffffffffffffffffff1673ffffffffffffffffffffffffffffffffffffffff16815260200190815260200160002054905092915050565b6000479050600061093e61093084600554610fe8565b670de0b6b3a7640000610e7e565b905080821015610983576040517f08c379a000000000000000000000000000000000000000000000000000000000815260040161097a9061163e565b60405180910390fd5b6109a9336109a485610993610592565b600a61099f91906117ca565b610e7e565b610ffe565b3373ffffffffffffffffffffffffffffffffffffffff166108fc829081150290604051600060405180830381858888f193505050501580156109ef573d6000803e3d6000fd5b507f92f64ca637d023f354075a4be751b169c1a8a9ccb6d33cdd0cb352054399572783604051610a1f919061169e565b60405180910390a1505050565b600033905090565b600073ffffffffffffffffffffffffffffffffffffffff168373ffffffffffffffffffffffffffffffffffffffff161415610aa4576040517f08c379a0000000000000000000000000000000000000000000000000000000008152600401610a9b9061161e565b60405180910390fd5b600073ffffffffffffffffffffffffffffffffffffffff168273ffffffffffffffffffffffffffffffffffffffff161415610b14576040517f08c379a0000000000000000000000000000000000000000000000000000000008152600401610b0b9061157e565b60405180910390fd5b80600160008573ffffffffffffffffffffffffffffffffffffffff1673ffffffffffffffffffffffffffffffffffffffff16815260200190815260200160002060008473ffffffffffffffffffffffffffffffffffffffff1673ffffffffffffffffffffffffffffffffffffffff168152602001908152602001600020819055508173ffffffffffffffffffffffffffffffffffffffff168373ffffffffffffffffffffffffffffffffffffffff167f8c5be1e5ebec7d5bd14f71427d1e84f3dd0314c0f7b2291e5b200ac8c7c3b92583604051610bf2919061169e565b60405180910390a3505050565b600073ffffffffffffffffffffffffffffffffffffffff168373ffffffffffffffffffffffffffffffffffffffff161415610c6f576040517f08c379a0000000000000000000000000000000000000000000000000000000008152600401610c66906115fe565b60405180910390fd5b600073ffffffffffffffffffffffffffffffffffffffff168273ffffffffffffffffffffffffffffffffffffffff161415610cdf576040517f08c379a0000000000000000000000000000000000000000000000000000000008152600401610cd69061153e565b60405180910390fd5b610cea8383836111d2565b60008060008573ffffffffffffffffffffffffffffffffffffffff1673ffffffffffffffffffffffffffffffffffffffff16815260200190815260200160002054905081811015610d70576040517f08c379a0000000000000000000000000000000000000000000000000000000008152600401610d679061159e565b60405180910390fd5b8181610d7c9190611942565b6000808673ffffffffffffffffffffffffffffffffffffffff1673ffffffffffffffffffffffffffffffffffffffff16815260200190815260200160002081905550816000808573ffffffffffffffffffffffffffffffffffffffff1673ffffffffffffffffffffffffffffffffffffffff1681526020019081526020016000206000828254610e0c91906116f0565b925050819055508273ffffffffffffffffffffffffffffffffffffffff168473ffffffffffffffffffffffffffffffffffffffff167fddf252ad1be2c89b69c2b068fc378daa952ba7f163c4a11628f55a4df523b3ef84604051610e70919061169e565b60405180910390a350505050565b60008183610e8c91906118e8565b905092915050565b600073ffffffffffffffffffffffffffffffffffffffff168273ffffffffffffffffffffffffffffffffffffffff161415610f04576040517f08c379a0000000000000000000000000000000000000000000000000000000008152600401610efb9061167e565b60405180910390fd5b610f10600083836111d2565b8060026000828254610f2291906116f0565b92505081905550806000808473ffffffffffffffffffffffffffffffffffffffff1673ffffffffffffffffffffffffffffffffffffffff1681526020019081526020016000206000828254610f7791906116f0565b925050819055508173ffffffffffffffffffffffffffffffffffffffff16600073ffffffffffffffffffffffffffffffffffffffff167fddf252ad1be2c89b69c2b068fc378daa952ba7f163c4a11628f55a4df523b3ef83604051610fdc919061169e565b60405180910390a35050565b60008183610ff69190611746565b905092915050565b600073ffffffffffffffffffffffffffffffffffffffff168273ffffffffffffffffffffffffffffffffffffffff16141561106e576040517f08c379a0000000000000000000000000000000000000000000000000000000008152600401611065906115de565b60405180910390fd5b61107a826000836111d2565b60008060008473ffffffffffffffffffffffffffffffffffffffff1673ffffffffffffffffffffffffffffffffffffffff16815260200190815260200160002054905081811015611100576040517f08c379a00000000000000000000000000000000000000000000000000000000081526004016110f79061155e565b60405180910390fd5b818161110c9190611942565b6000808573ffffffffffffffffffffffffffffffffffffffff1673ffffffffffffffffffffffffffffffffffffffff1681526020019081526020016000208190555081600260008282546111609190611942565b92505081905550600073ffffffffffffffffffffffffffffffffffffffff168373ffffffffffffffffffffffffffffffffffffffff167fddf252ad1be2c89b69c2b068fc378daa952ba7f163c4a11628f55a4df523b3ef846040516111c5919061169e565b60405180910390a3505050565b505050565b6000813590506111e681611df4565b92915050565b6000813590506111fb81611e0b565b92915050565b60006020828403121561121357600080fd5b6000611221848285016111d7565b91505092915050565b6000806040838503121561123d57600080fd5b600061124b858286016111d7565b925050602061125c858286016111d7565b9150509250929050565b60008060006060848603121561127b57600080fd5b6000611289868287016111d7565b935050602061129a868287016111d7565b92505060406112ab868287016111ec565b9150509250925092565b600080604083850312156112c857600080fd5b60006112d6858286016111d7565b92505060206112e7858286016111ec565b9150509250929050565b60006020828403121561130357600080fd5b6000611311848285016111ec565b91505092915050565b61132381611988565b82525050565b6000611334826116d4565b61133e81856116df565b935061134e8185602086016119cb565b61135781611abd565b840191505092915050565b600061136f6023836116df565b915061137a82611adb565b604082019050919050565b60006113926022836116df565b915061139d82611b2a565b604082019050919050565b60006113b56022836116df565b91506113c082611b79565b604082019050919050565b60006113d86026836116df565b91506113e382611bc8565b604082019050919050565b60006113fb6028836116df565b915061140682611c17565b604082019050919050565b600061141e6021836116df565b915061142982611c66565b604082019050919050565b60006114416025836116df565b915061144c82611cb5565b604082019050919050565b60006114646024836116df565b915061146f82611d04565b604082019050919050565b6000611487601a836116df565b915061149282611d53565b602082019050919050565b60006114aa6025836116df565b91506114b582611d7c565b604082019050919050565b60006114cd601f836116df565b91506114d882611dcb565b602082019050919050565b6114ec816119b4565b82525050565b6114fb816119be565b82525050565b6000602082019050611516600083018461131a565b92915050565b600060208201905081810360008301526115368184611329565b905092915050565b6000602082019050818103600083015261155781611362565b9050919050565b6000602082019050818103600083015261157781611385565b9050919050565b60006020820190508181036000830152611597816113a8565b9050919050565b600060208201905081810360008301526115b7816113cb565b9050919050565b600060208201905081810360008301526115d7816113ee565b9050919050565b600060208201905081810360008301526115f781611411565b9050919050565b6000602082019050818103600083015261161781611434565b9050919050565b6000602082019050818103600083015261163781611457565b9050919050565b600060208201905081810360008301526116578161147a565b9050919050565b600060208201905081810360008301526116778161149d565b9050919050565b60006020820190508181036000830152611697816114c0565b9050919050565b60006020820190506116b360008301846114e3565b92915050565b60006020820190506116ce60008301846114f2565b92915050565b600081519050919050565b600082825260208201905092915050565b60006116fb826119b4565b9150611706836119b4565b9250827fffffffffffffffffffffffffffffffffffffffffffffffffffffffffffffffff0382111561173b5761173a611a30565b5b828201905092915050565b6000611751826119b4565b915061175c836119b4565b92508261176c5761176b611a5f565b5b828204905092915050565b6000808291508390505b60018511156117c15780860481111561179d5761179c611a30565b5b60018516156117ac5780820291505b80810290506117ba85611ace565b9450611781565b94509492505050565b60006117d5826119b4565b91506117e0836119be565b925061180d7fffffffffffffffffffffffffffffffffffffffffffffffffffffffffffffffff8484611815565b905092915050565b60008261182557600190506118e1565b8161183357600090506118e1565b8160018114611849576002811461185357611882565b60019150506118e1565b60ff84111561186557611864611a30565b5b8360020a91508482111561187c5761187b611a30565b5b506118e1565b5060208310610133831016604e8410600b84101617156118b75782820a9050838111156118b2576118b1611a30565b5b6118e1565b6118c48484846001611777565b925090508184048111156118db576118da611a30565b5b81810290505b9392505050565b60006118f3826119b4565b91506118fe836119b4565b9250817fffffffffffffffffffffffffffffffffffffffffffffffffffffffffffffffff048311821515161561193757611936611a30565b5b828202905092915050565b600061194d826119b4565b9150611958836119b4565b92508282101561196b5761196a611a30565b5b828203905092915050565b600061198182611994565b9050919050565b60008115159050919050565b600073ffffffffffffffffffffffffffffffffffffffff82169050919050565b6000819050919050565b600060ff82169050919050565b60005b838110156119e95780820151818401526020810190506119ce565b838111156119f8576000848401525b50505050565b60006002820490506001821680611a1657607f821691505b60208210811415611a2a57611a29611a8e565b5b50919050565b7f4e487b7100000000000000000000000000000000000000000000000000000000600052601160045260246000fd5b7f4e487b7100000000000000000000000000000000000000000000000000000000600052601260045260246000fd5b7f4e487b7100000000000000000000000000000000000000000000000000000000600052602260045260246000fd5b6000601f19601f8301169050919050565b60008160011c9050919050565b7f45524332303a207472616e7366657220746f20746865207a65726f206164647260008201527f6573730000000000000000000000000000000000000000000000000000000000602082015250565b7f45524332303a206275726e20616d6f756e7420657863656564732062616c616e60008201527f6365000000000000000000000000000000000000000000000000000000000000602082015250565b7f45524332303a20617070726f766520746f20746865207a65726f20616464726560008201527f7373000000000000000000000000000000000000000000000000000000000000602082015250565b7f45524332303a207472616e7366657220616d6f756e742065786365656473206260008201527f616c616e63650000000000000000000000000000000000000000000000000000602082015250565b7f45524332303a207472616e7366657220616d6f756e742065786365656473206160008201527f6c6c6f77616e6365000000000000000000000000000000000000000000000000602082015250565b7f45524332303a206275726e2066726f6d20746865207a65726f2061646472657360008201527f7300000000000000000000000000000000000000000000000000000000000000602082015250565b7f45524332303a207472616e736665722066726f6d20746865207a65726f20616460008201527f6472657373000000000000000000000000000000000000000000000000000000602082015250565b7f45524332303a20617070726f76652066726f6d20746865207a65726f2061646460008201527f7265737300000000000000000000000000000000000000000000000000000000602082015250565b7f4e6f7420656e6f7567682045544820696e20636f6e7472616374000000000000600082015250565b7f45524332303a2064656372656173656420616c6c6f77616e63652062656c6f7760008201527f207a65726f000000000000000000000000000000000000000000000000000000602082015250565b7f45524332303a206d696e7420746f20746865207a65726f206164647265737300600082015250565b611dfd81611976565b8114611e0857600080fd5b50565b611e14816119b4565b8114611e1f57600080fd5b5056fea2646970667358221220295fe6992a22e5fdb3d057377685f951db204e2ada2fe406d08404d0d8267ef764736f6c63430008040033",
  "immutableReferences": {},
  "source": "// SPDX-License-Identifier: Beerware\r\n/*\r\n * ----------------------------------------------------------------------------\r\n * \"THE BEER-WARE LICENSE\" (Revision 42):\r\n * <lbromo@protonmail.ch> wrote this file.  As long as you retain this notice you\r\n * can do whatever you want with this stuff. If we meet some day, and you think\r\n * this stuff is worth it, you can buy me a beer in return.\r\n * \r\n * License originally authored by Poul-Henning Kamp (phk).\r\n * ----------------------------------------------------------------------------\r\n */\r\n \r\npragma solidity ^0.8.0;\r\n\r\nimport \"openzeppelin-solidity/contracts/token/ERC20/ERC20.sol\";\r\nimport \"openzeppelin-solidity/contracts/utils/math/SafeMath.sol\";\r\n\r\n\r\ncontract FixedToken is ERC20 {\r\n    uint256 public _token_per_eth;\r\n    \r\n    constructor(string memory name, string memory symbol, uint256 token_per_eth) ERC20(name, symbol) {\r\n        _token_per_eth = token_per_eth;\r\n    }\r\n    \r\n    // But and sell function with fixed ether value\r\n    event Bought(uint256 amount);\r\n    event Sold(uint256 amount);\r\n\r\n    function tokens_per_eth() public view returns (uint256){\r\n        return _token_per_eth;\r\n    }\r\n    \r\n    function buy() payable public {\r\n        uint256 eth_in = msg.value;\r\n        uint256 amount_to_buy = SafeMath.mul(eth_in, _token_per_eth);\r\n        \r\n        _mint(msg.sender, amount_to_buy);\r\n        emit Bought(amount_to_buy);\r\n    }\r\n    \r\n    function sell(uint256 amount) public {\r\n        uint256 eth_balance = address(this).balance;\r\n        uint256 eth_to_sell = SafeMath.mul(SafeMath.div(amount, _token_per_eth), 1 ether);\r\n        \r\n        require(eth_balance >= eth_to_sell, \"Not enough ETH in contract\");\r\n        \r\n        _burn(msg.sender, SafeMath.mul(amount, 10 ** decimals()));\r\n        payable(msg.sender).transfer(eth_to_sell);\r\n        emit Sold(amount);\r\n    }\r\n}",
  "sourcePath": "C:/Users/bromo/Documents/ethereum/beuro/contracts/FixedToken.sol",
  "compiler": {
    "name": "solc",
    "version": "0.8.4+commit.c7e474f2.Emscripten.clang"
  },
  "schemaVersion": "3.4.1",
  "updatedAt": "2021-05-25T14:24:19.065Z",
  "networkType": "ethereum",
  "devdoc": {
    "kind": "dev",
    "methods": {
      "allowance(address,address)": {
        "details": "See {IERC20-allowance}."
      },
      "approve(address,uint256)": {
        "details": "See {IERC20-approve}. Requirements: - `spender` cannot be the zero address."
      },
      "balanceOf(address)": {
        "details": "See {IERC20-balanceOf}."
      },
      "decimals()": {
        "details": "Returns the number of decimals used to get its user representation. For example, if `decimals` equals `2`, a balance of `505` tokens should be displayed to a user as `5,05` (`505 / 10 ** 2`). Tokens usually opt for a value of 18, imitating the relationship between Ether and Wei. This is the value {ERC20} uses, unless this function is overridden; NOTE: This information is only used for _display_ purposes: it in no way affects any of the arithmetic of the contract, including {IERC20-balanceOf} and {IERC20-transfer}."
      },
      "decreaseAllowance(address,uint256)": {
        "details": "Atomically decreases the allowance granted to `spender` by the caller. This is an alternative to {approve} that can be used as a mitigation for problems described in {IERC20-approve}. Emits an {Approval} event indicating the updated allowance. Requirements: - `spender` cannot be the zero address. - `spender` must have allowance for the caller of at least `subtractedValue`."
      },
      "increaseAllowance(address,uint256)": {
        "details": "Atomically increases the allowance granted to `spender` by the caller. This is an alternative to {approve} that can be used as a mitigation for problems described in {IERC20-approve}. Emits an {Approval} event indicating the updated allowance. Requirements: - `spender` cannot be the zero address."
      },
      "name()": {
        "details": "Returns the name of the token."
      },
      "symbol()": {
        "details": "Returns the symbol of the token, usually a shorter version of the name."
      },
      "totalSupply()": {
        "details": "See {IERC20-totalSupply}."
      },
      "transfer(address,uint256)": {
        "details": "See {IERC20-transfer}. Requirements: - `recipient` cannot be the zero address. - the caller must have a balance of at least `amount`."
      },
      "transferFrom(address,address,uint256)": {
        "details": "See {IERC20-transferFrom}. Emits an {Approval} event indicating the updated allowance. This is not required by the EIP. See the note at the beginning of {ERC20}. Requirements: - `sender` and `recipient` cannot be the zero address. - `sender` must have a balance of at least `amount`. - the caller must have allowance for ``sender``'s tokens of at least `amount`."
      }
    },
    "version": 1
  },
  "userdoc": {
    "kind": "user",
    "methods": {},
    "version": 1
  }
}